:10000000382E0020A1B60000598000005D8000005D
:10001000A70A02020002000004180FAC00288101A8
:1000200000000000000000000000000000000000D0
:1000300000000000646503000000000000000000F4
:100040000000000000000000FFFFFFFFFFFFFFFFB8
:10005000FFFFFFFFFFFFFFFFFFFFFFFFFFFFFFFFB0
:1000600000E00F000000000000001000FFFFFFFF95
:10007000FFFFFFFF1C000000000000000000000068
:100080001872002011660020116600201166002001
:10009000382E002048BA030014420300601F0020DD
:0C00A000401F002000001000187200201B
:10020000382E0020A1B60000598000005D8000005B
:100210006580000061800000698000009DB60000DC
:100220009DB600009DB600009DB600009DB6000082
:100230006D8000009DB600009DB600009DB60000D8
:100240006D45000079310300F9840000F081000061
:10025000392C0300E5310300853103009D31030093
:100260007D3103009D3C0000713D0000915B00006A
:1002700061A10000F0810000F0810000A51F0000D6
:10028000F0810000F0810000953D0000F081000049
:10029000F0810000F0810000F0810000F08100009A
:1002A000F0810000F0810000F0810000F08100008A
:1002B000E931030081310300F142000029320300DB
:1002C000F0810000DDFA0200F0810000F081000002
:1002D000F0810000F0810000F0810000F08100005A
:1002E000F0810000F0810000F0810000F08100004A
:1002F000F0810000F0810000F0810000F08100003A
:0C030000F0810000F08100009DB60000BC
:10030C00F8B500BFF8BC08BC9E467047F8B500BFF6
:10031C00F8BC08BC9E46704710B5054C237833B921
:10032C00044B13B10448AFF300800123237010BDBC
:10033C00744400200000000004A4030008B5034B23
:10034C001BB103490348AFF3008008BD0000000057
:10035C007844002004A40300154B002B08BF134B5A
:10036C009D46A3F5803A00218B460F461348144A4C
:10037C00121A33F099FE0F4B002B00D098470E4BFE
:10038C00002B00D098470020002104000D000D48E0
:10039C00002802D00C48AFF3008033F0DDFD2000C4
:1003AC00290008F045FE33F0C3FD00BF0000080033
:1003BC00382E0020000000000000000074440020D3
:1003CC0011660020000000000000000038B5044C4D
:1003DC00044802250021257010F0DEFB257038BD85
:1003EC00904400206861002010B511F05BFD104BAB
:1003FC00104800221A7001F063FC022332220A21F9
:10040C000D4801F081FC02233C220A210B4801F02B
:10041C007BFC022346220A21094801F075FC0223C9
:10042C0050220A210748BDE8104001F06DBC00BF06
:10043C0090440020403600202C4403003644030036
:10044C00404403003675030008B5074801F038FC3A
:10045C0002230A213222054801F056FC04490220ED
:10046C00BDE8084002F0D5BE4036002049440300E8
:10047C005444030008B50C4801F022FC022332223C
:10048C000A210A4801F040FC02233C220A210848B8
:10049C0001F03AFC074B084800221A704FF4FA613D
:1004AC00BDE8084010F078BB4036002066440300DD
:1004BC007A860300904400206861002008B5064845
:1004CC0001F0FEFB054B064803221A704FF4FA614B
:1004DC00BDE8084010F060BB402E00209044002086
:1004EC006861002008B50C4801F0EAFB32233C227D
:1004FC0003210A4801F008FC02234B22032108487F
:10050C0001F002FC022319467822064801F0FCFB9C
:10051C00BDE8084000F066BB403600207144030083
:10052C007A44030083440300084B00221A70084BE2
:10053C001B78012B05D002D3032B04D07047FFF797
:10054C0053BFFFF781BFFFF7CDBF00BF686100202D
:10055C009044002010B5094C237873B911F0ECF9D4
:10056C00014650B901230648237010F015FBFFF724
:10057C006BFFBDE8104000F02DBA10BD9044002078
:10058C006861002010B5064C237843B908F014FBC1
:10059C0002220449C42008F015FB0123237010BD6E
:1005AC00914400209844030010B5064C06490122E2
:1005BC00C42008F007FB01222146C42008F01EFBD2
:1005CC00207810BD7061002094440300022202497F
:1005DC00C42008F0F7BA00BF9544030008B5012207
:1005EC000449C42008F0EEFA01220349C42008F0A3
:1005FC0005FB08BD93440300403E002010B5084C99
:10060C0008490122C42008F0DDFA02222146C42048
:10061C0008F0F4FA2078637843EA002010BD00BF9C
:10062C007861002097440300024B1870024810F0C8
:10063C00B3BA00BFB44400208C61002010B596B052
:10064C0056220021074C684633F02EFD684611F007
:10065C0097FA20461022694607F0C6FD204616B0D0
:10066C0010BD00BF93440020F0B5274B1F8893B0FA
:10067C0022237F2205460C4609A8394607F0B8FE0E
:10068C00BDF844204FF6FF739A4233D11F4B6A4694
:10069C0003F1200C18685968164603C608336345E5
:1006AC003246F7D11B783370002323702378072B45
:1006BC0013D90022EA541649012002F0AAFD22782F
:1006CC00ADF84420294609A807F08EFD222209A97D
:1006DC00384607F0B1FE13B0F0BD08F037F912AA96
:1006EC0000F01F001044237810F8482CEA542378AB
:1006FC000133DAE7227009A9D2B2284607F074FD5B
:10070C0023780022EA54E6E736660300D34503005B
:10071C00B945030010B5164B1B78042B044604D0C6
:10072C0040F22F11134807F00DFB102221461248FE
:10073C0007F05AFD10222146104807F055FD104BCA
:10074C001049002201201A7002F052FD012002F023
:10075C0037FD10B1204602F071FD0B49012002F06B
:10076C0058FD00210520BDE81040FFF75DBF00BF1C
:10077C00B4440020AA440300A44400207C6100205F
:10078C0092440020C54403006557030008B50F4B85
:10079C001B78053B012B04D94FF4DA710C4807F098
:1007AC00D1FA01200B4902F023FD012002F008FDD3
:1007BC0010B1094802F042FD0849012002F029FD60
:1007CC0000210420BDE80840FFF72EBFB4440020F0
:1007DC00AA440300EA440300A44400206557030024
:1007EC0030B595B006AD214C38220021284633F0A7
:1007FC005BFC2278052A04D040F275111C4807F0E6
:10080C00A1FA03F06BFE4FF47A7242431949059238
:10081C00012002F0EDFC012002F0D2FC10B11648D0
:10082C0002F00CFD1549012002F0F3FC059807F0CD
:10083C0001FC14AB124A43F83C0D019204220092C5
:10084C000295104A0C48022127F028F8024628B9D4
:10085C0001460620FFF7E8FE15B030BD0A4901201D
:10086C0002F0D7FC42F210712078F3E7B444002078
:10087C00AA4403003C460300A4440020655703002F
:10088C0099080000DC4403005846030010B5124BD5
:10089C001B78062B1ED100F0FD0001280F4C0BD14C
:1008AC00002323702378022B10D842F210710520FC
:1008BC00BDE81040FFF7B8BE227809490132D2B228
:1008CC0003230120227002F0A4FCEBE7BDE81040EA
:1008DC00FFF75CBF10BD00BFB44400209244002061
:1008EC0013460300224B10B50C4600211970052845
:1008FC003BD8DFE800F003113C1C3417022C36D136
:10090C001C49012002F085FCFFF7B4FD1A49204672
:10091C00BDE8104002F07DBC00210120BDE8104074
:10092C00FFF782BE032C22D114490120F0E7144BAF
:10093C001A78012A11D0134C134B022A18BF1C46EB
:10094C00FFF77CFE114903462246012002F061FCB0
:10095C00FFF7B4FD00210420E0E70D4CF0E77F2108
:10096C000C48BDE8104007F0EDB98221F8E710BD46
:10097C008C610020284503004245030047450300D5
:10098C00B444002021450300034503005F450300E8
:10099C000C450300AA44030010B50B4B1B78012B2C
:1009AC00044603D09621094807F0CCF954B12246ED
:1009BC000749012002F02DFC00210220BDE8104067
:1009CC00FFF732BE10BD00BFB4440020AA440300A0
:1009DC009D45030008B510F0AFFF014620B9022079
:1009EC00BDE80840FFF720BE08BD000000B58BB085
:1009FC000DF1030101A8FFF737FE01AA03490120FD
:100A0C0002F007FC0BB05DF804FB00BFF4450300DB
:100A1C00024618B10249012002F0FBBBFFF7D6BC1D
:100A2C006F4503001FB50E4B079C1B78042B14D18C
:100A3C0004F11000FFF76EFE44214B09022B02D08B
:100A4C002378FF2B07D00023CDE9013300931A46FE
:100A5C00204627F067F904B010BDA321EDE700BFD5
:100A6C00B44400201FB50C4B1B78042B0CD1002177
:100A7C001022684633F018FB6946002002F0AEF8ED
:100A8C0028B16846FFF746FE05B05DF804FB034944
:100A9C00012002F0BEFBF7E7B44400209A440300A7
:100AAC00034B1B78052B01D1FFF79ABE704700BF93
:100ABC00B4440020034B1B78053B012B01D8FFF7F6
:100ACC0065BE7047B444002018B90249012002F0F9
:100ADC00A0BB7047894503000020704710B5374B09
:100AEC00374C00221A702278013AA0B0062A5ED840
:100AFC00DFE802F0040F5D49530D5600FFF79EFD31
:100B0C0030490246012002F084FB11F0D3F920B0E9
:100B1C0010BD562200210AA833F0C6FA212200216A
:100B2C0001A833F0C1FA102227490AA807F05CFB90
:100B3C0002238DF84B300DF17D01032301A88DF8B4
:100B4C004C30FFF791FD9DF87D2001A90DF15D0062
:100B5C0007F04AFB01201C4A1C4902F049FB01200A
:100B6C0002F02EFB18B110F0E3FE02F0E1FB01AA3B
:100B7C001749012002F04DFB164A40F231110AA828
:100B8C0013F0E6FBC3E71449012002F042FB47F2E5
:100B9C0030512078FFF748FDB9E7FFF721FEB6E7A3
:100BAC000E49012002F035FB11F07CF9AFE74FF450
:100BBC0005710B4807F0C6F8A9E700BF8C6100204F
:100BCC00B444002074460300034603009746030018
:100BDC00B846030000F8FF07CB460300F6460300B7
:100BEC00AA440300024B0348002119700FF0D4BF34
:100BFC00B544002094610020044B1A78044B1A7001
:100C0C00044B1A88044B1A80704700BF9D6100206A
:100C1C009C610020A06100209E61002013B5134C44
:100C2C0002233C225021204601F06EF802234B2275
:100C3C005021204601F068F80D4B69460A221888AD
:100C4C0033F0C6F902233C22502101F05DF8094B28
:100C5C0069460A2293F9000033F0BAF902234B22B9
:100C6C00502101F051F802B010BD00BF0E47030037
:100C7C00A06100209D61002010B51E4B1E4C00226F
:100C8C001A702378042B34D8DFE803F0030B111A05
:100C9C0026000123237000211648BDE810400FF0F8
:100CAC007BBFFFF76FFCFFF791FC0223F2E7FFF726
:100CBC0095FC10F0010106BF032323700A21EBE71A
:100CCC00FFF79AFFFFF79AFC0C4B1880FFF76CFCB0
:100CDC000B4B18700423DDE7094B93F90010074BFD
:100CEC00188800F08DF9FFF799FF00232370642119
:100CFC00D2E710BD94610020B5440020A061002013
:100D0C009D610020FFF7E8BE00F022B800F021B88A
:100D1C0000F021B800F021B808B500F01FF8BDE8CC
:100D2C00084001F0C3BD08B510F0A6FD00F017F89F
:100D3C0001F064FA07F034FF08F0B2F8BDE808409F
:100D4C0008F098BF00F008B8FFF7CCBD70477047AB
:100D5C007047012070477047704770477047704765
:100D6C0038B5A0F1430305460A2B31D8DFE803F070
:100D7C00060A0A121230303030301100BDE838400B
:100D8C000AF02ABC0AF0F4FB20B10AF025FC00287A
:100D9C00FBD138BD124C20780028FAD10123443DF8
:100DAC00237009F0B7FB032D0DD8DFE805F006061C
:100DBC00090240F601000AF017FD00232370E8E752
:100DCC0040F60200F7E7EF21064806F0BBFFF4E718
:100DDC0040F201110348BDE8384006F0B3BF00BF34
:100DEC00B644002015470300002070477047704739
:100DFC0000207047704770477047704770477047C6
:100E0C0070477047704770470020704770477047B5
:100E1C00704770477047704700207047704700203C
:100E2C0070477047704770477047704770477047FE
:100E3C0070477047704770470BF004B810B4BDF89A
:100E4C00084002945DF8044B00F000B870470000B5
:100E5C0007B50623002200931146034B03481FF0ED
:100E6C0042FF03B05DF804FBA36100207C6100200D
:100E7C00084BF0221A7001225A70074A1288DA7055
:100E8C00110A064A997012781A717E225A71FFF76C
:100E9C00DFBF00BFA3610020AA61002070610020A9
:100EAC0008B50B49022002F0B4F90A4BF0221A7073
:100EBC0002225A70084A1288DA70110A074A99708D
:100ECC0012781A717E225A71BDE80840FFF7C0BF34
:100EDC005F4C0300A3610020AA6100207061002018
:100EEC0008B50B49022002F094F90A4BF0221A7053
:100EFC0003225A70084A1288DA70110A074A99704C
:100F0C0012781A717E225A71BDE80840FFF7A0BF13
:100F1C00874C0300A3610020AA61002070610020AF
:100F2C0008B50B49022002F074F90A4BF0221A7032
:100F3C0004225A70084A1288DA70110A074A99700A
:100F4C0012781A717E225A71BDE80840FFF780BFF3
:100F5C004C4C0300A3610020AA61002070610020AA
:100F6C0008B50B49022002F054F90A4BF0221A7012
:100F7C0005225A70084A1288DA70110A074A9970C9
:100F8C0012781A717E225A71BDE80840FFF760BFD3
:100F9C00734C0300A3610020AA6100207061002043
:100FAC00084BF0221A700F225A70074A1288DA7016
:100FBC00110A064A997012781A717E225A71FFF73B
:100FCC0047BF00BFA3610020AA6100207061002010
:100FDC00084BF0221A7006225A70074A1288DA70EF
:100FEC00110A064A997012781A717E225A71FFF70B
:100FFC002FBF00BFA3610020AA61002070610020F8
:10100C00134B1970134B1880A0F11E03772B17D8B4
:10101C00A0F151031C2B01D8FFF72ABF4F2806D88B
:10102C0049B2023101DAFFF77BBFFFF739BF6E28F7
:10103C000CD949B2022901DDFFF792BFFFF750BF6F
:10104C001D2801D8FFF7C4BFFFF7AABF704700BF28
:10105C0070610020AA610020084B1A7810B50AB103
:10106C00002010BD0122064C1A7054F8043F002BCE
:10107C00F6D098470028F8D0F3E700BFE8440020EA
:10108C00403E00200E4B1B7830B5ABB1002815DC70
:10109C000C4B2C2202FB003303F128050A461C469C
:1010AC0003CCAC4210605160234602F10802F6D129
:1010BC0020681060002030BD0348FCE70348FAE7C5
:1010CC00E8440020B8440020050011800200118083
:1010DC00104B1B7830B5C3B10F4B1A68002A16DCC5
:1010EC00511C19600D4903462C2000FB021203F120
:1010FC00280518685968144603C40833AB422246C5
:10110C00F7D118682060002030BD0548FCE7054881
:10111C00FAE700BFE8440020E4440020B844002073
:10112C000500118001001180802910B50DD10849EE
:10113C0008480C6804EB021282424FF0000087BF93
:10114C00186005481C600A6010BD0448FCE700BF2D
:10115C004C3E0020E94C002001001180020011805F
:10116C00004870470400118008B500F025F900F024
:10117C00DBF8002008BD70B50E461D460024AC42BD
:10118C0006EB041001D1002070BD1022002132F0BA
:10119C008BFF0134F3E72DE9F7430F4603200E21B3
:1011AC000B9E00F02DF9062000F00BF90A9D01357D
:1011BC00ADB22B020DF1080843F0010328F8023DF3
:1011CC000221404600F0D8F8002406F1FF39013521
:1011DC00B44207EB04100AD1022000F0F2F80E2101
:1011EC00032000F019F9002003B0BDE8F0831021B2
:1011FC0000F0C2F8A1451BBF2B191B024FF6FF7361
:10120C0043F0FF0302214046ADF80630013400F0F4
:10121C00B3F8DDE708B50D21032000F009F9002033
:10122C0008BD08B529B10F21032000F0E9F8002012
:10123C0008BD0F21032000F0EFF8F8E710B58CB0D3
:10124C0000F0BAF800F070F800F0C2F800231A466B
:10125C000821022000F0C6F800231A4606210220BD
:10126C0000F0C0F800231A460E21032000F0BAF853
:10127C0000231A460F21032000F0B4F800231A466D
:10128C000D21032000F0AEF8402200211E4800F092
:10129C009DF80446002834D11C4B019301238DF892
:1012AC00143080230293CDE90333194B0693194B69
:1012BC000793194B0893194B0993194B8DF815008B
:1012CC000A9301A8174B0B93FFF702FF0446C0B912
:1012DC000F21032000F094F80E21032000F090F869
:1012EC00062000F06EF80CA80423022120F82E3DF5
:1012FC0000F042F8022000F064F80E21032000F008
:10130C008BF820460CB010BD211200009C4C030041
:10131C002F120000351100006D110000A311000008
:10132C00831100007511000030B50F4D0FCD87B043
:10133C006C460FC495E8030084E803000B4C0C4882
:10134C00012104F089FD0B4B02932046694606F0FF
:10135C00B1FB0A236367A36F23F01F2343F00B2316
:10136C000020A36707B030BDB44C0300000401405B
:10137C000052040040420F0070B50E4E05460C465C
:10138C002CB90C4A13699B06FCD5002070BD012CAE
:10139C0001D0EA0706D515F8011B304606F0D1FB43
:1013AC00013CEDE735F8021B304606F0CFFB023C62
:1013BC00E6E700BF0004014008B500F0D3FC0020B4
:1013CC0008BD08B500F0A4FD002008BD0020704742
:1013DC0008B50121024804F03FFD002008BD00BF04
:1013EC0000350A0010B514462AB9C0B2042205F023
:1013FC007FFE204610BD0148FCE700BF01001380B2
:10140C00012303FA01F1C0B230235843014B1950A8
:10141C00002070470CA00046012303FA01F1C0B272
:10142C0030235843014B1950002070470CA0004446
:10143C00C2B23020504300F18040012300F520401F
:10144C0003FA01F18161002070470000044B1B7806
:10145C001BB1044B0360002070470120704700BF94
:10146C00244D0020EA4C002070B50D4C247884B13A
:10147C000C4C26888518B5420DDC6688CD18B54213
:10148C0009DC52B14BB1A080E18022816381002044
:10149C0070BD0120FCE70420FAE70520F8E700BF47
:1014AC00244D0020EA4C00202DE9F04F1E46574BEE
:1014BC001B7887B09346002B00F0A180544B1C681E
:1014CC00002C00F09C80534A019253895D1A1389B9
:1014DC006B431B1AB342C0F094804F4B5D7C002DC4
:1014EC0040F091809A680493D2080292494A4B4B7F
:1014FC00D28811448AB20299039201FB0248A94690
:10150C002C461EB9304607B0BDE8F08F019A1789FA
:10151C00049A3F1A127CB74228BF3746012AA6EB21
:10152C00070613D8019A95880544ADB2690703D113
:10153C00620701D1072F40D805EB070EA5EB040C71
:10154C0001250CEB040292B2724511D3039A4A4462
:10155C00501102F01F0101228A4053F820100A4357
:10156C0043F82020029A09F1010990440020C8E7B1
:10157C00E1101BF8010004F00701084104990F7CED
:10158C0000F00100D10802F0070247B958B989B23E
:10159C0005FA02F218F8010020EA020209E0012F14
:1015AC00F5D10028F3D189B205FA02F218F801003E
:1015BC00024308F801200134C3E74FEAD70A08EBCD
:1015CC00D50552460BEBE4012846059332F061FD3C
:1015DC004FEACA02BF1A1444059BB7D00122BA4085
:1015EC00D2B215F80A1050420140E010013A1BF833
:1015FC0000000240114305F80A103C44A6E7012004
:10160C0081E703207FE70A207DE700BF244D0020FF
:10161C00284D0020EA4C0020F84C0020B46100203A
:10162C002DE9F04F85B00393534B1B78002B00F042
:10163C009E80524B1E68002E00F09980504B5F7CB0
:10164C009846002F40F095809B68DFF838A1DFF8B2
:10165C0038B1DB080193BAF8063019448BB2029307
:10166C00DDE9013202FB03660F9B1BB9184605B07E
:10167C00BDE8F08F434B1C890F9B241A9C4228BF5A
:10168C001C461B1B0F9398F81030012B14D8039A8F
:10169C00BAF80430B2FA82F54FEA551514BF6D4210
:1016AC0005F1FF351844072CEDB280B22FD8044455
:1016BC009DB1012184421FD8029BFB185A1103F0E3
:1016CC001F0101238B405BF822100B434BF8223097
:1016DC00019B01371E440020C6E701258442EBD94B
:1016EC00C10800F00702735C05FA02F223EA020358
:1016FC000130735480B2F1E7C20800F00703B55C07
:10170C0001FA03F32B430130B35480B2D2E74FEA12
:10171C00D00C10F0070006EB0C030FD00122824016
:10172C0016F80CE0D2B25142013A29400EEA0202FC
:10173C001143083806F80C10013304445FEAD4094D
:10174C0009D018464A46294632F0AEFCB4EBC9041F
:10175C0003464B44B0D0012202FA04F4E4B21978E7
:10176C006242013C0A402C4014431C70A4E7012047
:10177C007DE70A207BE700BF244D0020284D002088
:10178C00F84C0020EA4C0020B461002070B50A4CE3
:10179C0005460A4823468669C2684168B0472368F3
:1017AC003BB12B601022FF21054832F07DFC00205C
:1017BC0070BD0B20FCE700BF284D0020F84C00202A
:1017CC00B4610020F7B5194E337853BBFFF744FCD6
:1017DC00044618BB164D2946FFF754FC0446E8B9DD
:1017EC00144F3846FFF7D2FF0446B8B93B68D3B163
:1017FC00EB686968104A9DB28FB22B4617805580F2
:10180C009080D080178155817B4301223270CDE9C5
:10181C000003024603460146FFF702FF204603B0D1
:10182C00F0BD0024FAE70B24F8E700BF244D00209C
:10183C00F84C0020284D0020EA4C00202DE9F04FF8
:10184C00254C264FA6683D68DFF894A085B0002093
:10185C00F6084FF0010801460397A346E36801EB35
:10186C000009994509D340BB102200211B4832F0D6
:10187C001BFC002005B0BDE8F08F15F001020AD06A
:10188C0001300B18DB0609BF039B6D0853F8285079
:10189C0008F10108E2E770B1CDE90010DAF80000B8
:1018AC006368276A01FB06015846B8470028E1D156
:1018BC0009F10101E5E70131E3E7094B256A1F68EE
:1018CC006368CDE90010002201FB06710248A847AD
:1018DC000028C9D0CEE700BFF84C0020B46100202E
:1018EC00284D002030B10268002153881288084628
:1018FC00FFF7BABD0520704737B50546A8B1446857
:10190C00FFF7F0FF014668B92A68158953896B43C4
:10191C000193E3B20093C4F30742C4F30723FFF728
:10192C007FFE0146084603B030BD0521FAE70246AA
:10193C0058B1118A936952698089013301325B1A5B
:10194C00121A9BB292B2FFF78FBD05207047F0B40C
:10195C00D0B1C9B10E688C68A64218DA4D68CA6855
:10196C00954214DA002E14DB002D12DB01680F886F
:10197C00BC420EDA49888A420BDAC0E90365C0E939
:10198C000542F0BCFFF7D3BF0520F0BC7047042024
:10199C00FBE70320F9E7000030B5054687B000B33C
:1019AC0000226FF07F43C0E9012301A8FFF74EFD31
:1019BC00044698B9019B2B601A885B88CDE902001C
:1019CC00013A013B02A9284604920593FFF7BFFF99
:1019DC00044618B90449284600F037F9204607B0E8
:1019EC0030BD0524FAE700BFFC4F030073B50D466C
:1019FC001646044690B10C3000F04CF880B1A26849
:101A0C0001230193D3B20093B1B2C2F30723A8B25E
:101A1C00C2F30742FFF704FE02B070BD0520FBE7DE
:101A2C000120F9E773B50D4616461C4688B10C30FB
:101A3C0000F030F878B101230193E3B20093C4F3C2
:101A4C000742C4F30723B1B2A8B2FFF7E9FD02B015
:101A5C0070BD0520FBE70120F9E7F8B5DDE9065775
:101A6C001FFA82FC1C460646ABB288B2A2B2614693
:101A7C00FFF7FAFC014658B905FB04F33A46FFF7A9
:101A8C0013FD014620B93046BDE8F840FFF74FBFC3
:101A9C000846F8BD78B103688B420BDC83688B4237
:101AAC0008DB4368934205DCC0689042B4BF002059
:101ABC0001207047002070472DE9F04F85B0934608
:101ACC0002939DF838300393054600287CD0A1F191
:101ADC0020035E2B7AD890F82830022B8CB21BD1C5
:101AEC003A291BD020291BD0303CA4B22B8CA3420A
:101AFC006CD9EB69DDF8088001930027029B95F8FF
:101B0C002520A8EB03039BB29A420BD8B7FA87F0B7
:101B1C00400905B0BDE8F08F203CE6E70A24E5E774
:101B2C000B24E3E795F82230012B05D0022B1CD0B7
:101B3C00019B33F824A002E0019B13F804A0D946C2
:101B4C00A9EB0B0695F82430B6B2B34211D895F830
:101B5C00243095F8272013449E4225DB95F823303A
:101B6C001C44A4B208F10108C8E7019B33F814A087
:101B7C00E5E71AF0010F0DD0424649462846FFF71B
:101B8C0035FF0128C5D800B901374FEA5A0A09F1C7
:101B9C000109D5E7039B002BF7D06B6842464946F9
:101BAC002846FFF73FFFECE7039B53B16B684246B7
:101BBC000BEB06012846FFF735FF0128A9D800B921
:101BCC0001370136B6B2C2E70520A2E70220A0E732
:101BDC002DE9F74F0C9E9DF834B09A46054680B31C
:101BEC0079B390F8283073B30C4601EB02095746D1
:101BFC004FF00008A14505D1B8FA88F0400903B0B0
:101C0C00BDE8F08F14F8011B0A2907D195F825308F
:101C1C001E4495F8263057461E44EBE7CDF800B02D
:101C2C0033463A462846FFF747FF0128E7D808B95C
:101C3C0008F1010895F8243095F8272013441F4427
:101C4C00D8E70520DBE70220D9E708B520B11C3026
:101C5C0021B9102232F028FA052008E001F1100316
:101C6C0051F8042B40F8042B9942F9D1002008BDFF
:101C7C0010B50446FFF7F0F90020FFF7A3FD0B4861
:101C8C00FFF78AFE2CB1012C07D109490748FFF751
:101C9C00DCFF084B01221A7010BD022C01D1064941
:101CAC00F4E7032CF5D10549F0E700BF304D0020D7
:101CBC00CC4C03002C4D0020FC4F03002C53030094
:101CCC0013B504460E48FFF717FE0E4B1B78012B7D
:101CDC0002D00020FFF7CCFF2CB9094802B0BDE8B8
:101CEC001040FFF709BE8023002201940093114697
:101CFC000348FFF7B2FE02B0BDE81040FFF79EBDEF
:101D0C00304D00202C4D00202DE9F3411C46124B88
:101D1C00124E1B78012B05460F46904602D13378A4
:101D2C009C4202D02046FFF7A3FF35B90C48FFF7C1
:101D3C00E3FD347002B0BDE8F081284632F0DCF9E6
:101D4C0001230246CDE9008329463B460448FFF7B0
:101D5C003FFFFFF773FDECE72C4D0020C461002022
:101D6C00304D00202DE9F04F614A624C10685168EB
:101D7C00127A87B003AB03C31A70D4F8B0305A0789
:101D8C0000F18B8001215C4804F066F801265B4869
:101D9C0004F000F9032107465848D4F8905004F099
:101DAC00CFFB574804F0F0F8D4F8F0300190DB0783
:101DBC0005F0400573D40121514804F04DF84FF063
:101DCC00010804F000FD4F4B1C6814F0010483461D
:101DDC004FF0000266D0D3F800905C6A1A605A6229
:101DEC0040F2FF721A62484B4FF08042C3F88021D8
:101DFC004FF0010A00238DF80E308DF80F3003A838
:101E0C0008238DF8103005F0C7FC404B3D494FF4CA
:101E1C0080521A601A6852001A6052B188688A6837
:101E2C009042FCD088681A68013AFDD88A689042C2
:101E3C00F0D01A68334952081A601B68334A0920DB
:101E4C00013801D05B0830D1584604F0C2FCBAF11D
:101E5C00000F48D001992A4804F0C2FA294BC3F864
:101E6C0000905C62B8F1000F03D00021244803F00D
:101E7C00F3FF032F03D03946204804F061FB25B94A
:101E8C002A462946012004F0E3FA1EB100211A4823
:101E9C0003F0E2FF07B0BDE8F08F002677E74FF0C4
:101EAC0000088EE7A146A246A4E7D2F800C04CEA8F
:101EBC00030CC2F800C0D1F808E0D1F808C0E64520
:101ECC00FBD0D1F808E0D2F800C0BCF1010CFCD872
:101EDC00D1F808C0E6451EBFD2F800C02CEA030CAE
:101EEC00C2F800C0ACE7504605F050FCBAE700BFA2
:101EFC001C55030000400E4000250A00050022007E
:101F0C00A00914000020044000E100E0503E002035
:101F1C0003460849002B0CD0013B882212020032E8
:101F2C0053430A68D80AD20A5043800901D00138B9
:101F3C00FDD87047503E002070B5134C8A00A31892
:101F4C0022449B781D09062D98BF104E03F00F03F9
:101F5C0094BF755DFF25062B05719ABF0C4DEB5C8C
:101F6C00FF234371FF3B18BF01238371D37014F817
:101F7C002130084C4370537883700146204603F09F
:101F8C0077FE0123A36070BD5C4D00202C5503002F
:101F9C0025550300002000407FB52249224800222D
:101FAC00FF23CDE901228DF8093003784C6C8D6B41
:101FBC0003922C40E407DBB228D5022B26D88C6C7C
:101FCC001A4901EB8301A5B2CE78194906B3260450
:101FDC001ED521F813201749012202FA03F30A78BF
:101FEC001343154A0B701378CBB100231478DC40E3
:101FFC00E407D9B20FD501701078012404FA03F369
:10200C004340DBB201A81370FFF796FF04B070BD1C
:10201C0021F81350DFE70133032BE7D1F6E7032355
:10202C000370F3E700200040684D00205C4D002059
:10203C006C4D00206A4D0020694D00200C490D4B61
:10204C0010B5002A14BF0A461A4604460A49012054
:10205C0001F0CEF8012001F0B3F810B1204601F0E8
:10206C00EDF806490120BDE8104001F0D2B800BFE0
:10207C00335503003C5503004955030065570300D5
:10208C0001207047062804D007280CBF012002202D
:10209C0070470020704700002DE9F04385B04FF4E5
:1020AC008073ADF80C3001F041FE01211548DFF8CA
:1020BC005C80DFF85C9003F0CFFE0121124803F046
:1020CC00CBFE0024012703AB0122E35C18F833603C
:1020DC0008EBC30330465D680023294605F008F879
:1020EC004946E8B201F030FECDE9007701232A46DB
:1020FC002946304604F0B0FF14B105B0BDE8F083BA
:10210C000124E0E74041050000350A00505503006A
:10211C00A521000008B5FFF7B5FF022816BF024B3A
:10212C000020185C08BD00BF724D002008B5FFF7F9
:10213C00A9FF02281CBF014B195408BD724D002089
:10214C0008B5FFF79FFF022805D0034A135CB3FACA
:10215C0083F35B09135408BD724D002008B5FFF7DB
:10216C0091FF022811D00A4A12F8301030234B4349
:10217C0002EBC00207491944536803EBC1039B00EF
:10218C001868B0FA80F0400908BD0020FCE700BFD9
:10219C00505503001CA0104270B50446FFF7DEFF3B
:1021AC000026054601E000261D462046FFF7D6FF17
:1021BC00A8420346F7D10136052EF2D12046FFF78F
:1021CC00A9FFA8420BD029462046FFF7AFFF2046B7
:1021DC00FFF7A0FF01462046FEF7BCF970BD204674
:1021EC00FFF7AEFF2046FFF795FF01462046FEF7AE
:1021FC00B1F92046FFF7A4FFE9E7000008B520215C
:10220C00002000F017FD30B1034A04490120BDE85D
:10221C00084000F0EDBF08BD605503006D5503008C
:10222C002DE9F04FA5B080468A46002006A900F0A3
:10223C00D5FC48B90220424B424A434900F0E9FF21
:10224C00022025B0BDE8F08F0021012000F026FC13
:10225C0016AF3822002181460024384631F024FF85
:10226C00ADF8164000F028FB022857D90DF11601E5
:10227C00022000F043FC064600F01EFB032806D9A2
:10228C002146032000F00AFC03788DF88C302F4C8B
:10229C0022684FF6FF739A420AAD41D02C490220B6
:1022AC0000F0B7FF22680C21284625F075FD0124AB
:1022BC00DFF8B0B0DBF800204FF6FF739A420BD07A
:1022CC002449022000F0A5FF05EB0410DBF80020E8
:1022DC00112125F061FD0134DFF88CB0DBF8002012
:1022EC004FF6FF739A420BD01B49022000F091FF6E
:1022FC0005EB0410DBF80020172125F04DFD01340F
:10230C001C958DF87440BAF1000F0BD00220134BC2
:10231C000C4A0D4900F07DFF012092E72646B6E7F6
:10232C000024C5E70E4B0193BDF8163000930297BD
:10233C0033464A46414606A825F0B0FA81E700BF6D
:10234C00725503007D550300815503005C3E00204F
:10235C0088550300A3550300BD550300DB5503004E
:10236C0079230000543E0020583E00202DE9F04314
:10237C009BB004460D4602203D49BDF888601746C7
:10238C00984600F035FF204624F0ECFF3949024610
:10239C00022000F02DFF002C50D0284624F0BAFF6C
:1023AC0034490246022000F023FF00221146384631
:1023BC0025F07AF8431C054624D06422002101A89C
:1023CC0031F072FEA8B263283FD90130002180B2EF
:1023DC000DF028FE00283CD00DF082FA4FF00009D9
:1023EC000446AAB22146384625F05EF82246224918
:1023FC00022000F0FDFEB9F1000F03D01F490220AE
:10240C0000F0F6FED6B101AA0C21384625F039F8B9
:10241C0020B3019C204624F091FF1949024602206A
:10242C0000F0E6FE0CB1282C1BD1022000F0C8FEF7
:10243C0020B132464146022000F05CFF11490220D7
:10244C0000F0E7FE1BB0BDE8F0834FF0000901ACD3
:10245C00C7E74FF0010901AC6325C2E74FF0FF3429
:10246C00D8E7002332464146022000F04FFFE5E753
:10247C0005560300766E03000F5603009E570300AB
:10248C0015560300655703001FB50020694600F080
:10249C00A5FB40B9084B094A0949022000F0B9FED6
:1024AC0005B05DF804FB694641F233601EF02DFC6B
:1024BC00044A05490346F0E7725503007D550300B5
:1024CC0081550300994A0300FD55030010B5002106
:1024DC000120FFF7A5FE044A04490346BDE810405D
:1024EC00022000F096BE00BF974B0300FD55030081
:1024FC0010B500210220FFF793FE044A044903465D
:10250C00BDE81040022000F084BE00BF9B4B0300CE
:10251C00FD55030010B500210320FFF781FE044A8E
:10252C0004490346BDE81040022000F072BE00BF13
:10253C00A54B0300FD55030010B500210420FFF747
:10254C006FFE044A04490346BDE81040022000F027
:10255C0060BE00BF8D4B0300FD550300012110B57B
:10256C000846FFF75DFE044A04490346BDE81040E7
:10257C00022000F04EBE00BF974B0300FD55030038
:10258C0010B501210220FFF74BFE044A0449034613
:10259C00BDE81040022000F03CBE00BF9B4B030086
:1025AC00FD55030010B501210320FFF739FE044A45
:1025BC0004490346BDE81040022000F02ABE00BFCB
:1025CC00A54B0300FD55030010B501210420FFF7B6
:1025DC0027FE044A04490346BDE81040022000F0DF
:1025EC0018BE00BF8D4B0300FD55030008B500203D
:1025FC0000F0E4F9014B186008BD00BF543E002008
:10260C0008B5002000F0DAF9014B186008BD00BFD6
:10261C005C3E002070B5012000F0D0F90128124C6E
:10262C0003D94FF6FF73236070BD002000F0C6F98C
:10263C007F28F6D8022000F0C1F9B0F1805FF0D20B
:10264C00012000F0BBF90546002000F0B7F9064662
:10265C00022000F0B3F90246281CF1B218BF012089
:10266C0025F084FB2060DFE7583E00202DE9F04F79
:10267C00074685B008460D469046994631F03CFD1C
:10268C00BDF838A00F9E204C8346636853B9CDE942
:10269C00013300931A468421304625F043FB05B0E4
:1026AC00BDE8F08F22892078991811F8011C2F2988
:1026BC0004BF02F1FF3292B208B1B84221D12F29E6
:1026CC001DD1934506D3A95CB9B12F2914BF0021A4
:1026DC00012100E00021A1B12946184631F014FD7A
:1026EC0078B9CDE90EA6E4684B46424629463846F1
:1026FC00A44605B0BDE8F04F60470121EBE79345D8
:10270C00E4E71034C1E700BFE44B0300002070473E
:10271C000020704770477047F8B50546846802681A
:10272C001B49202007F029FA6B68DBB1194D1A4EB2
:10273C001A4F013C14F8013FC3B1752B1CD0762BFA
:10274C001CD0772B1CD0732B1CD0622B1CD06E2B67
:10275C001CD01349134A2A2B18BF1146202007F00E
:10276C000CFAE7E71049202007F007FA0F49202060
:10277C00BDE8F84007F001BA2946EFE73146EDE72E
:10278C003946EBE70A49E9E70A49E7E70A49E5E789
:10279C008555030072570300665703007D570300ED
:1027AC00A5570300A25703009E570300635703006D
:1027BC0089570300935703009D57030013B5044634
:1027CC00FFF7AAFF01A9204600F020FA18B1084C27
:1027DC00019B1B680BB902B010BD2146202007F0ED
:1027EC00CCF90198FFF798FF019B0C330193EFE7AD
:1027FC001247030008B50449202007F0BEF9202039
:10280C00BDE8084007F01FBA5456030038B5FFF76F
:10281C00F1FF064D002460190C34631953F80C3C7D
:10282C0003B938BDFFF778FFF5E700BF6449030033
:10283C00094B10B553F820200C462020074907F00F
:10284C009CF944B10649202007F097F92046BDE8D1
:10285C001040FFF7B3BF10BD345603001E560300E3
:10286C002A56030000230370A0F8663080F88630E7
:10287C00C0F890304FF07F42A0F88C300A23C0F89B
:10288C00882080F88E307047074B00224FF07F4134
:10289C001A70A3F8662083F88620C3F8881083F892
:1028AC008C20C3F890207047C86100200148FFF7C6
:1028BC00D9BF00BFC8610020034B93F8860093F882
:1028CC008C30C01AC0B27047C8610020034B03EBB8
:1028DC0040000133B0F8660018447047C86100200E
:1028EC00044B03EB400292F8680092F86630C01A71
:1028FC00C0B27047C8610020044B03EB4002B2F831
:10290C006800B2F86630C01A80B27047C861002007
:10291C00054A92F88C30184440B202EB4000013268
:10292C00B0F86630D05C7047C86100202DE9F047E4
:10293C00204C054694F88C002844C0B243B204EBFA
:10294C0043030E46B3F86680FFF7CAFF8146FFF7D4
:10295C00B3FFA84294F88E7003D8CB21164805F02B
:10296C00F1F94FF0000A55465FFA8AF399451CD9E4
:10297C000AEB08022244507816B10BB92D280DD061
:10298C0000F0DF02582A03D115B9013B012B0FD9F6
:10299C000EF00AFE874204D905FB07050AF1010A6D
:1029AC00E2E7052384F88A3000252846BDE8F08745
:1029BC001027F3E7C86100201758030010B516491B
:1029CC0091F88E30FF2B044621D1FFF789FF64B2BA
:1029DC0001EB44040246B4F866004B1C012A00EBE0
:1029EC00030101D1C05C10BD022A03D108460EF0D0
:1029FC00E1FCF8E7042A04D10020BDE810400EF0F9
:102A0C0007BD0648EF2105F09DF90020EBE70021FA
:102A1C00BDE81040FFF78ABFC861002017580300BB
:102A2C0038B51C4991F88E30FF2B044623D1FFF7A3
:102A3C0057FF64B201EB440402464B1CB4F8660029
:102A4C00012A00EB0301C45601D1204605E0022AFD
:102A5C0004D108460EF0AEFC00B238BD042A04D1F5
:102A6C000020BDE838400EF0D3BC4FF485710A4805
:102A7C0005F068F9E9E7FFF74BFFA0F12D03594288
:102A8C00054659412046FFF751FF2D2D08BF404206
:102A9C00E3E700BFC861002017580300F8B5164BD8
:102AAC0093F88E20FF2A04461D4603F101060CD133
:102ABC0021B1C0B2FFF714FF0138087005EB4404D4
:102ACC00B4F8660001303044F8BD93F88C00204413
:102ADC00C0B242B203EB4203E543B3F86670ED0FAC
:102AEC00F41939B1FFF7FCFEF35D401B222B08BF34
:102AFC00013808706019E7E7C8610020F8B5164B7B
:102B0C0093F88E20FF2A04461D4603F101060CD1D2
:102B1C0021B1C0B2FFF7F0FE0238088005EB440487
:102B2C00B4F8660002303044F8BD93F88C002044B1
:102B3C00C0B242B203EB4203E543B3F86670ED0F4B
:102B4C00F41939B1FFF7D8FEF35D401B222B08BFF7
:102B5C00013808806019E7E7C86100202DE9F341CE
:102B6C000D460DF10701904607461C46FFF796FFF0
:102B7C000646F8B2FFF7CCFEA0F122035F429DF8A7
:102B8C0007105F413944C9B2414528BF41468DF811
:102B9C0007101CB1CCB2A8EB0404E4B222462846C0
:102BAC00002105F0ABFB28199DF80720314605F0F4
:102BBC001BFB9DF80700C01BC0B202B0BDE8F08142
:102BCC0013B501230C4608226946FFF7C7FF0822FC
:102BDC00694620460EF03DFC02B010BD10B540B267
:102BEC000C460021FFF75AFF2146BDE8104014F0B7
:102BFC0000B938B540B20C4615460021FFF74EFF20
:102C0C002A462146BDE8384014F006B908B5D0E98B
:102C1C00012312B90B60012008BD1B786E2B04D167
:102C2C004FF4D371024805F08DF80020F4E700BF93
:102C3C00175803002DE9F04FA14C97B081468846F8
:102C4C000026B9F1000F0DD10DF113015FFA88F0D8
:102C5C0006F0F2FF90B1262800F0B081012384F831
:102C6C008A3051E0B8F1000F00F0A88119F8013B4F
:102C7C008DF8133008F1FF381FFA88F894F88D306E
:102C8C009DF8135084F88D500D2B01D10A2DD8D0FE
:102C9C000D2D0CD0A5F10A035F425F4123783E460F
:102CAC00042BCED8DFE803F0051A244232000127AA
:102CBC00F4E7002F5BD1202D00F06381222D08D189
:102CCC0002232370B4F88820642A40F05C81062328
:102CDC00C5E77B2D0CBF03230123F2E70FB9202D91
:102CEC00F0D194F886300F2B40F03C810323B6E7EB
:102CFC00222D03D100238DF81330E3E7002FE1D010
:102D0C00052384F88A30012604232370002E98D0E2
:102D1C0094F88A0018B1D4F89010FFF789FDFFF7EA
:102D2C00B3FD9DF8133084F88D308AE77D2D94F82F
:102D3C008BA004D1BAF1FF0FD3D005238FE728461F
:102D4C000EF032FC0F280FD8BAF1FF0F09D094F80F
:102D5C008B3000EB0310FF238DF8130084F88B30BD
:102D6C00B0E784F88B006CE7202DE6D169E7554B72
:102D7C00059394F88630002BC5D0002778B2059DBA
:102D8C00FFF7A4FD82463846FFF7AAFD0022029009
:102D9C0016469346296861B9E2B10591022384F87D
:102DAC008A3094F88A30002BADD1059B5B6898472C
:102DBC00A9E70B7843B34B1E0193D446019911F844
:102DCC00013F01910299ACEB0A0088423DD1002BE6
:102DDC003CD1AB46CDF814B0BBF1000FDED094F86B
:102DEC008C30C4F890B00137013305A95846FFB2B6
:102DFC0084F88C30FFF70AFF002843D094F8863013
:102E0C00BB42BBD80323CAE70F2EAB6807D9F82106
:102E1C002D480392019304F095FF039A019B16A988
:102E2C0001EB86010C35013641F8405CF6B21D46CB
:102E3C002B68002BAED1002EACD0013EF6B216ABF7
:102E4C0003EB860353F8405CA4E72BB9BBF1000FEE
:102E5C0016D001220C35EBE71CF8010BA0F1410E4A
:102E6C00BEF1190F98BF2030A3F1410E98BFC0B22C
:102E7C00BEF1190F9CBF2033DBB283429ED0E9E731
:102E8C00AB46E7E7059B9B681B783F2B89D0064632
:102E9C0005464FF0070A4FF0040B3FE01046029333
:102EAC000192FFF735FD029B019A732B0ED8712B03
:102EBC0010D2002B54D0622B4AD084F88AA01FE089
:102ECC00C8610020644903009A580300A3F17501FE
:102EDC000229F2D8752B34D0762B34D0732B35D005
:102EEC00722B47F6FF7318BF4FF0FF3301211046CA
:102EFC000193FFF71BFD019B984201D984F88AB01E
:102F0C00059B9B682B4401365B782A2B94F88A30FE
:102F1C001CBF0135EDB2002B7FF4F5AE059B94F888
:102F2C0086C09968F2B2B818C0B284454B5DB5D86A
:102F3C00002B3FF436AF0D446B782A2B7FF462AF35
:102F4C002FE7FF23D2E74FF6FF73CFE77F23CDE7C1
:102F5C002228D5D07B28D3D0052384F88A30CFE71C
:102F6C000323FAE70133DBB284F8863004EB430326
:102F7C00B4F88820A3F8662000232370002F7FF478
:102F8C00F6AE3E465DE62178012909D19DF8133055
:102F9C00A3F1410019289CBF2033DBB28DF813300C
:102FAC00A0189DF81330437001320229A4F8882030
:102FBC007FF447AE002B3FF494AE42E6304617B098
:102FCC00BDE8F08F0122114608B5042003F040FA49
:102FDC00154B1A6842F001021A60DA6842F08072EE
:102FEC00DA604FF06043114AC3F8B02F104A002149
:102FFC000220C3F8001EC3F8801EC2F8F000152092
:10300C001061C3F8401E0B490B4808600B49C3F80C
:10301C00801E4FF48071C2F80413D3F8002E0A43BB
:10302C00C3F8002E08BD00BFF0ED00E055CEACC5D6
:10303C00000004E0001000E0FF0300400D00010060
:10304C0010B50121114802F007FF114B01241C603F
:10305C00002003F0F5FF234604220221052004F092
:10306C0047F820460EF02EF9FFF7ACFF0EF05CF996
:10307C00084B1C7007F0A6FB234640220649074864
:10308C0007F076FB064B1860C00F10BD00350A0028
:10309C0010881442744D0020754D002018590300FF
:1030AC00603E0020024B1868003018BF01207047AA
:1030BC00F0ED00E0054A4170D12303701378C37022
:1030CC00090A8170591C117004207047B54D0020FD
:1030DC002DE9F74F0E78042E81460F4658D908F08B
:1030EC00F2FB751DDFF8ACA0EDB280464FF6FF7118
:1030FC000024DAF800305BB1A54209D9019108F03F
:10310C00E2FBA0EB080080B2B0F5FA7F019907D979
:10311C00281B18BF012004233B7003B0BDE8F08FBF
:10312C0064B3012C2ED0EB1E04F1010B9C425FFA10
:10313C008BFB12D1CCB24FF06043D3F8802ED0076A
:10314C0009D5D3F8002ED20505D51846026A002AF7
:10315C00FCD083F820405C46CBE7AB1E9C4202D1EE
:10316C00C1F30724E7E76B1E9C420FD04C4414F8C4
:10317C00024C204604F0F4FE0146DCE75B244FF0E1
:10318C00010BD8E734464FF0020BD4E75D24D2E7AD
:10319C000020C0E7F0ED00E000B5084B91B04022F4
:1031AC006946186807F0D2FA20B1C2B269461220FB
:1031BC000EF0CCF811B05DF804FB00BF603E0020AF
:1031CC00094B18804FF6FF73984208D0030A08D1B8
:1031DC00064B1B78034214BF0120002070470120CE
:1031EC0070470020704700BFB64D0020643E0020A1
:1031FC000EB403B503AA52F8041B0192FFF7E0FFCB
:10320C0010B1202006F0E1FC02B05DF804EB03B035
:10321C0070470EB403B503AA52F8041B0192FFF7D2
:10322C00CFFF28B1202006F0D0FC202006F0B4FC03
:10323C0002B05DF804EB03B07047000000B58BB032
:10324C002822694613F0C2FD28B1044B04491888A2
:10325C006A46FFF7CDFF0BB05DF804FBB64D0020BE
:10326C00776E030000B58DB02C2301AA13F0B8FDC6
:10327C0028B1044B0449188801AAFFF7B9FF0DB017
:10328C005DF804FBB64D0020776E030008B5FFF720
:10329C0097FF20B12020BDE8084006F0D4BC08BD43
:1032AC002DE9F84F07468846164699469DF828A002
:1032BC00FFF786FF28B1002402F1FF3BB442A5B210
:1032CC0001D1BDE8F88FBAF1000F10D0ABEB0403BD
:1032DC0018F803204946384605F00F05FFF788FF1C
:1032EC00062D02D13846FFF7D1FF0134E6E723461D
:1032FC00EEE7000007B500230093034BFFF7D0FF68
:10330C0003B05DF804FB00BF2C59030037B5002453
:10331C000094054D054C002B14BF2B462346FFF79C
:10332C00BFFF03B030BD00BF28590300D8550300C0
:10333C0037B5084C084905462088FFF759FF01238B
:10334C0000932088054B08222946FFF7A9FF03B0FC
:10335C0030BD00BFB64D0020046D0300D8550300EE
:10336C0037B5084C084905462088FFF741FF012373
:10337C0000932088054B08222946FFF791FF03B0E4
:10338C0030BD00BFB64D0020046D0300D8550300BE
:10339C0038B504460D46AAB101200B49FFF728FFAA
:1033AC000120FFF70DFF18B129462046FFF75AFF01
:1033BC0006490120FFF72DFF29462046BDE838407D
:1033CC0030F006BA38BD00BF34590300366E030026
:1033DC0070B50D461646044690B101200949FFF719
:1033EC0007FF0120FFF7ECFE18B131462846FFF726
:1033FC0039FF224604490120BDE87040FFF709BFA0
:10340C0070BD00BF2F590300505903002DE9F04F38
:10341C004D4CA36BD4F850B0D4F840A05A074FBF12
:10342C000027D4F84CB0D4F85480D4F83CA05ABF40
:10343C00464FDFF84091DFF84091454A48BFB84607
:10344C0013F0080F434B18BF1A46B7EB08061CBF06
:10345C007308642187B01FBF01FB0B33B3FBF6F37A
:10346C009BB205933C49CDF800804B46CDE9017ADF
:10347C0008BF0596054606F095FBB3B2CDE900935F
:10348C001FFA8BF2059B3549284606F08BFBA36B84
:10349C005B070AD49C3E5E4507D1626D304B9A4265
:1034AC0003D23049284606F07DFBBA4501D8C24507
:1034BC0004D24A462C49284606F074FB284606F0EE
:1034CC00C2FB236E0BB9636EBBB32849DFF8AC802B
:1034DC00DFF8AC90284606F050FB00260127226E40
:1034EC0007FA06F3134207D058F8262013781BB1BD
:1034FC004946284606F041FB0136202EEFD1DFF875
:10350C007C80DFF87C9000260127626E07FA06F3B8
:10351C00134209D008EB8603D3F8802013781BB133
:10352C004946284606F029FB0136122EEDD12846D5
:10353C0007B0BDE8F04F06F02FBB0D49284607B089
:10354C00BDE8F04F06F02EBB00000020382E002006
:10355C005A5C0300347E0300625C0300905C030041
:10356C009C000020C95C0300F55C0300135D0300A4
:10357C00425D0300555C03004D5C0300585D030085
:10358C00845503002DE9F843044604F04DFD40F644
:10359C000123984239D010D840F2025398421DD0E2
:1035AC0040F20173984224D040F20153984213D157
:1035BC006549204606F0F6FA22E040F603239842CD
:1035CC006CD03DD340F60423984200F09C8040F62A
:1035DC000523984200F0B580BDE8F8835B4920468E
:1035EC0006F0E0FA5A4B5B495A6C204606F0DAFAC0
:1035FC0006E0574A5849D2E92523204606F0D2FA6C
:10360C002046BDE8F84306F01EBB514D53492046F9
:10361C0006F0C8FA95F86C309F0703D55049204640
:10362C0006F0C0FA95F86F305E0603D54D4920467A
:10363C0006F0B8FA95F96F30002BE1DA4A49B8E791
:10364C00434D4A49204606F0ADFA95F86830980784
:10365C0004D06A6C3F49204606F0A4FA95F968300C
:10366C00002B04DA6A6F4249204606F09BFADFF819
:10367C000C81DFF8189100260127AA6E07FA06F3D1
:10368C00134207D058F8262013781BB14946204620
:10369C0006F088FA0136082EEFD1B1E72C4D3549EA
:1036AC00204606F07FFA2B496A6C204606F07AFA1F
:1036BC0095F86930590703D52F49204606F072FA60
:1036CC0095F96930002B04DA6A6F2949204606F017
:1036DC0069FA2A4FDFF8B4800826AB6EF340DA079C
:1036EC0007D557F8262013781BB14146204606F023
:1036FC0059FA0136102EF0D195F86830002B7FF472
:10370C007FAF1F4955E7124D1E491C4FDFF87C80D7
:10371C00204606F047FA6A6C0E49204606F042FA3B
:10372C001026AB6EF340DB0707D557F8262013782D
:10373C001BB14146204606F035FA01361A2EF0D15F
:10374C005EE711494BE700BFDC590300195A03002F
:10375C0000000020495A0300625A03007C5A0300FF
:10376C00945A0300CE5A0300015B03003D5B030037
:10377C00625B0300865B03009D5B030068590300DA
:10378C00E35B0300135C03002C5C03007E5B030013
:10379C002DE9F84F164C174FDFF86080DFF860A06A
:1037AC000646002523785FFA85FB0BB9BDE8F88F38
:1037BC0057F8043B10492246304606F0DEF92278D1
:1037CC0004F1010982B9627882B10BF0030103297B
:1037DC000CBF41465146304606F0CFF9304606F054
:1037EC0032FA01354C46DDE74C46E8E74146F2E754
:1037FC00205E030004000020D3590300635703002C
:10380C00D05903002DE9F04F9B46584B85B01B78DF
:10381C00109F9DF844A0DDF8508006468946154659
:10382C00002B00F09280072A00F291800E9B002B57
:10383C0000F08D800F9B002B00F08980129BB3F55C
:10384C00006F00F38480012801D1002F7FD0484BFA
:10385C0003EB05131B7B002B7BD0464C1022002165
:10386C00684630F021FC04EB45141022B9F1000F2E
:10387C005CD14946204630F017FCA37843F0100386
:10388C00A370E37843F03003E370BAF1000F03D177
:10389C00DBB243F00303E3703649129BCDF800B062
:1038AC006A01013B885A01EB020C63F30E1088523B
:1038BC000E9BCCF808300F9BCCF804309DF84C10C4
:1038CC009CF80330012E61F383038CF8033042D152
:1038DC001323CCF80C309CE80F000CF1100E8EE882
:1038EC000F00DCF81C20CCF814706FF0030161F3AE
:1038FC009F02B9F1010FCCF81C2004D10F9BCCF81E
:10390C001830CCF804701A492A018B1841F802803F
:10391C000027159A5A6028469F605E7322466946B6
:10392C0003F004FE384605B0BDE8F08F00212046B8
:10393C0030F0BAFB1023A3700323E370BAF1000F2D
:10394C00AAD1DBB243F03003A5E70B48EBE70B48F9
:10395C00E9E70B48E7E7B8F1000FD4D19CF8023047
:10396C0068F304138CF80230CDE700BF384F002009
:10397C00B84D0020384E0020028000F0018000F08D
:10398C00078000F038B5104B1B780546BBB1C0B1B1
:10399C0002F019FF0D49002301EB0312147B3CB913
:1039AC002B6001231373146002F013FF204638BD03
:1039BC000133082BF0D102F00CFF0548F7E705485E
:1039CC00F5E70548F3E700BF384F0020B84D00205D
:1039DC00048000F0028000F0018000F038B502F0A5
:1039EC00F2FE0B4A05460023D1180C7B5CB9103350
:1039FC00802BF9D103F04EFD064B28461C7002F0CB
:103A0C00E8FE204638BD284602F0E3FE0248F9E7FE
:103A1C00B84D0020384F0020058000F00D4B1B786E
:103A2C0010B5044693B1072812D802F0CCFE0A4B0D
:103A3C0003EB04131A7B2AB100241C7302F0C9FE99
:103A4C00204610BD02F0C5FE0448FAE70448F8E72A
:103A5C000448F6E7384F0020B84D0020068000F0EF
:103A6C00028000F0018000F013B5164B186801902D
:103A7C0000238DF8043002F0A6FE134B1C7824B101
:103A8C0002F0A7FE114802B010BD01221A7002F01C
:103A9C00A0FE0F4B1C731C7783F82C4083F83C4022
:103AAC0083F84C4083F85C4083F86C4083F87C408E
:103ABC0004230DEB03008DF8073003F00BFD2046BB
:103ACC00E1E700BFAF640300384F0020038000F033
:103ADC00B84D002010B588B00E9C07940D9C069430
:103AEC009DF8304005940B9C04949DF82840039459
:103AFC000024CDE9013400920B46024621462046B3
:103B0C00FFF780FE08B010BD10B588B00E9C07946E
:103B1C000D9C06949DF8304005940B9C04949DF8E4
:103B2C00284003940024CDE9013400920B46024650
:103B3C0001212046FFF766FE08B010BD08B50A4B00
:103B4C001B785BB107280BD8084B03EB00131B7BCE
:103B5C0043B1002103F0B4FC002008BD0448FCE78D
:103B6C000448FAE70448F8E7384F0020B84D002025
:103B7C00028000F0018000F0078000F008B50A4BCD
:103B8C001B785BB107280BD8084B03EB00131B7B8E
:103B9C0043B1012103F094FC002008BD0448FCE76C
:103BAC000448FAE70448F8E7384F0020B84D0020E5
:103BBC00028000F0018000F0078000F008B50A4B8D
:103BCC001B7853B107280AD8084B03EB00131B7B57
:103BDC003BB103F0FDFC002008BD0548FCE705489F
:103BEC00FAE70548F8E700BF384F0020B84D002031
:103BFC00028000F0018000F0078000F00D4B1B7874
:103C0C0093B1072812D889B10B4B03EB00131B7B24
:103C1C0073B10A4B1A6A012303FA00F010401ABF61
:103C2C0000200B70087070470548704705487047B6
:103C3C0005487047384F0020B84D002000200E403A
:103C4C00028000F0018000F0078000F00B4B1B7825
:103C5C0010B50C4663B107280CD859B1084B03EBCF
:103C6C0000131B7B43B103F0C9FC2060002010BD86
:103C7C000448FCE70448FAE70448F8E7384F00200A
:103C8C00B84D0020028000F0018000F0078000F0A9
:103C9C002DE9F843174E326EF36E12EA030800D585
:103CAC00FEE7154CDFF854900127002518EA070FA2
:103CBC0016D02368B7669BB1A16862680131A16018
:103CCC0028469847637B012B0AD148B909EB451369
:103CDC00197B1A7F60F3410160F3410219731A7763
:103CEC000135082D4FEA470704F11004DED1BDE879
:103CFC00F88300BF00200E40B84D0020384E002045
:103D0C0070B5094E0446012504B970BD94FAA4F0AF
:103D1C00B0FA80F005FA00F324EA030456F82030D8
:103D2C00002BF1D09847EFE73C4F0020054B4FF4A8
:103D3C008022C3F880211A604FF48062C3F880217E
:103D4C001A60704700E100E038B504460D4602F0F9
:103D5C003AFD034B43F82450BDE8384002F039BD1E
:103D6C003C4F0020074BD3F82804D3F81C241040F8
:103D7C0020F42A5020F02A004004400CC3F82404FC
:103D8C00FFF7BEBF00A00040074BD3F82804D3F8C0
:103D9C001C24104020F4AA4020F055000004000C14
:103DAC00C3F82404FFF7ACBF00A000402DE9F84F86
:103DBC00284C4FF0000A04F1A00580464FF0000992
:103DCC004FF0010B237F84F81DA06BB1D4E90023C5
:103DDC00994508BF9045104619460AD2B2EB080027
:103DEC0063EB0901C4E900012834AC42EAD1BDE817
:103DFC00F88FE37F33B92377A369002BF4D084F8D1
:103E0C001DB0F1E7D4E90267B8EB000069EB0101E2
:103E1C0032463B462FF00CFFB01A67EB03012369C7
:103E2C006269002BC4E900010BDD1344F32B6361C1
:103E3C00E2D9461C41F10007F43BC4E90067636119
:103E4C00DAE7D31AF32B6361D6D910F1FF3641F1BF
:103E5C00FF37F1E7904F002038B5074C0025637F02
:103E6C001BB1A369216A284698470135042D04F13A
:103E7C002804F4D138BD00BF904F0020064B5A6A7D
:103E8C0099690A40D20705D501221A62034A1368C0
:103E9C0001331360704700BF0020044030500020F5
:103EAC00F0B5194E00214FF0FF324FF0FF3374186C
:103EBC00257F3DB1D4E900459D4208BF94423CBFEB
:103ECC0022462B462831A029F1D1104900240C7030
:103EDC005C1C08BFB2F1FF3F0C4614D000279F4278
:103EEC000B496FF0640608BF9642086038BF324633
:103EFC000849042502440D6201234A6523704B6A6C
:103F0C0043F004034B62F0BD904F0020844F00201F
:103F1C00804F0020002004400F4B1B7870B50546E5
:103F2C00BBB102F050FC0D490023282606FB0312FE
:103F3C00947F14B935B90A4C07E00133042BF5D141
:103F4C00084C02E0012191772B6002F042FC2046E4
:103F5C0070BD054CFBE700BF854F0020904F002043
:103F6C00041000F0011000F0061000F070B5214DA7
:103F7C002C78002C3BD101211F48204E01F06CFF06
:103F8C0003211F4802F0DCFA032301211D48337181
:103F9C0001F062FF304603F0FFFB1B49012003F0E8
:103FAC00DBFB1A4B1A485A6A22F4FF6222F0070212
:103FBC005A6240F2FF721A62164A9C604FF08041BE
:103FCC00C2F8801111605A6A42F001025A6221460D
:103FDC00A02230F069F8104B1C70104B1C70104B69
:103FEC001C60104B1C60104B1C6001232B700020BC
:103FFC0070BD00BF854F002000250A00653E0020E3
:10400C0005002200A00914006E3E00200020044090
:10401C00904F002000E100E07C4F0020844F0020F6
:10402C00884F002030500020345000202DE9F74FED
:10403C0093465C4A1278074689461E46002A00F0D1
:10404C00AD80032800F2AC8002F0BDFB564A282458
:10405C0004FB07248046A17F924629B902F0B9FBE4
:10406C00524803B0BDE8F08FBBF1000F08D116B178
:10407C000C993846B047404602F0ABFB0020F0E705
:10408C004B4A4FF4004C4FF47A6000219568A661BE
:10409C004FF4FA520023ECFB0B012FF0C9FDB9F1E0
:1040AC00010F02460B46C4E9022309D14FF47A737F
:1040BC0003FB0BFBF42303FB10B323617A23636133
:1040CC00282303FB07A301304FF0010241F100014B
:1040DC00C3E900011A770C9A83F81F901A62354BCA
:1040EC001B78002BC7D1344C236801331EBF2368C7
:1040FC0001332360314B01931A78E2B9304B2C4ECB
:10410C001D600423336200236FF064028B4208BFEE
:10411C00824238BF104628447065736A019A43F096
:10412C0004037362012313702368002BA3D023684C
:10413C00013B23609FE72368012BF5D1282303FB68
:10414C0007A30026DFF86890DFF874B01E77D9F863
:10415C00242022F00402C9F82420DBF80000281ADD
:10416C00FFF724FEFFF778FE26B9282202FB07A2F0
:10417C00012010772846FFF793FE114BD9F8085011
:10418C001868D9F85420019BA5EB000C121A18786A
:10419C0001360028C8D09445D9D2C5E7094860E754
:1041AC0009485EE7854F0020904F0020031000F077
:1041BC00002004407C4F0020884F0020844F0020BA
:1041CC00804F0020061000F0021000F02DE9F8439B
:1041DC00264B1B7805460C46002B41D0032841D8B2
:1041EC00002941D002F0EFFA214B282202FB0533C3
:1041FC009A7F22B902F0EDFA1E48BDE8F8831A7FC7
:10420C001AB902F0E6FA1C48F7E7D3E900671B4B32
:10421C009D681B4BD3F8008002F0DBFA0021A5EB64
:10422C0008008F4208BF864215D3361A67EB010788
:10423C00B046B9464FF4FA55A8FB052312F5804059
:10424C0005FB09334FEAD03243F1000142EA414207
:10425C0022600020D1E74FF000084FF00009E9E799
:10426C000848CAE70848C8E70848C6E7854F002051
:10427C00904F0020031000F0051000F000200440C7
:10428C00804F0020061000F0021000F0041000F027
:10429C00F8B502F098FA084D084F2C68BE68FFF785
:1042AC00EDFD2B689C42F8D102F093FA0022901994
:1042BC0044F10001F8BD00BF305000200020044044
:1042CC002DE910484FF4FA54A0FB04BC1BF58042B6
:1042DC0004FB01CC4CF10003D00B40EA4340BDE899
:1042EC00108800002DE9F8431A4C02F06CFA626A4F
:1042FC00A1690A4022F0050153070546216221D528
:10430C00154AA768154EDFF8589001211170904698
:10431C00636A23F0040363623068381AFFF746FDC2
:10432C00FFF79AFD3846FFF7BBFD3268A768636D4F
:10433C00B91A9B1A99F800200AB19942E8D20023C5
:10434C0088F80030FFF79AFD2846BDE8F84302F0E4
:10435C0040BA00BF002004407C4F0020804F00205A
:10436C00844F0020044B4FF04042DA621A6B22F06B
:10437C0040421A63704700BF00300E402C48F0B525
:10438C00002203682B4D114654592CB11E68AC18F1
:10439C00002E36D1234601210832282AF4D101B14E
:1043AC0003602549254E0B680022144695592DB102
:1043BC001F68B518002F2BD12B4601240832282A50
:1043CC00F4D104B10B6000681D4B026842B3DA698A
:1043DC00007922F0FF020243DA611A6B42F080424C
:1043EC0009681A630A68164BF2B1DA69097922F482
:1043FC007F4242EA0122DA611A6B42F000421A63F0
:10440C00F0BD1E792779B74284BF23460121C3E74B
:10441C001F7995F804C0BC453CBF2B460124CDE761
:10442C001A6B22F08042DBE71A6B22F00042E6E7BF
:10443C004450002054500020485000207C50002054
:10444C0000300E4008B51B4B1B4801221A7000218E
:10445C0028222FF029FE2822002118482FF024FEB4
:10446C00174A184B13601849184A13600A684B6DA9
:10447C00C2F30742FF2A02D0DBB2FF2B01D19023FB
:10448C001922134802EB820103EBD1010160DB001E
:10449C000521B3FBF1F313440E4A1360FFF762FFDF
:1044AC000D4B0122C3F880211A60FFF767FF002033
:1044BC0008BD00BF38500020545000207C50002014
:1044CC00445000204C500020B081E00F4850002098
:1044DC003C5000204050002000E100E0064B186AE0
:1044EC00C0B20523C000B0FBF3F0044B1B68181AD4
:1044FC0000F3070040B2704700300E4040500020DF
:10450C0010B5144C226B616A0A4010D5124B1B6813
:10451C001A682AB1002119605960FFF7DFFF904734
:10452C004FF00043E362BDE81040FFF727BF530094
:10453C00F9D50A4B1B681A6832B100211960596011
:10454C00FFF7CCFF01219047024B4FF08042DA621B
:10455C00E9E700BF00300E404850002044500020D6
:10456C00FFF7CEBF38B141B1013AB2F5006F044844
:10457C0038BF00207047034870470148704700BFA0
:10458C00037000F0027000F00D490E4A0B7810B564
:10459C004BB9C2E90033C2E9023301240C7042F872
:1045AC002300002010BD002352F823100029F6D060
:1045BC008142F4D00133042BF6D10348F2E700BF5B
:1045CC00B4500020A4500020027000F038B504460E
:1045DC000D4602F0F8F8A28892B222B92A6002F0D5
:1045EC00F8F8064838BD6388142202FB03430833ED
:1045FC002B6002F0EEF80020F4E700BF0B7000F027
:10460C0038B504460D4602F0DEF8A3889BB223B9F8
:10461C002B6002F0DEF80C4838BD6388E188142268
:10462C0002FB034308332B6063885A1C92FBF1F3A3
:10463C0001FB13239BB26380A388013B9BB2A38035
:10464C0002F0C7F80020E7E70B7000F07FB50123FC
:10465C0080F82C3090F8323093B90C4A03680392EE
:10466C000022049002924A680192012200920A6888
:10467C00016980681C33FFF747FA07B05DF804FB4B
:10468C00012BEAD0002380F82C30F6E7E94E00002D
:10469C007FB5012380F82D3090F8323083B9026851
:1046AC0034320D4B03930023049002934B68019317
:1046BC00012300930B68C1684068FFF70BFA07E011
:1046CC00012B02D102682832EBE7002380F82D3051
:1046DC0007B05DF804FB00BFE9460000F7B5906A2F
:1046EC0001A91446FFF772FF144B984220D0019B8E
:1046FC0000251D619D6002F066F8019AD668074698
:10470C0026B1D2E9002329462046B04701A9A06A68
:10471C00FFF776FFA06A83889BB263B101A9FFF70C
:10472C0055FF01992046FFF7B3FF384602F051F8C8
:10473C00012003B0F0BD84F82D30F6E70B7000F0CB
:10474C00427E30235343044A1A44437F03EBC20393
:10475C009B001868C0B270471CA0104213B51D4ACC
:10476C00002352F82340617F81420ED00133042B89
:10477C00F7D102B010BD0028FBD19DF80730002BFB
:10478C00F7D06068FFF7DAF9F3E794F83130022BD1
:10479C00EFD12046FFF7D4FF637D2075022BE8D1C3
:1047AC0094F82E3003F0FF02002BE2D102A96068CE
:1047BC0001F8012DFFF722FA237D1BB194F82F305D
:1047CC00002BD8D0002384F82F306068FFF7D6F97F
:1047DC00CFE700BFA450002090F8323053B90368E3
:1047EC000122DA601A69D007FCD55A6F42F0010237
:1047FC005A677047012B0CD103685A6C9107FCD493
:10480C0001225A609A68D207FCD55A6D42F0010217
:10481C005A65704790F832303BB903685A6F22F0F2
:10482C0001025A670222DA607047012B09D1036832
:10483C005A6C9207FCD45A6D22F001025A6502227E
:10484C005A60704710B50446FFF70EF90021201D81
:10485C00FFF798F8014608B1044810BD04F10800B0
:10486C00FFF790F80028F8D0F6E700BF0E7000F0C4
:10487C00F8B5044617460D4601F0A5FFA388E2885B
:10488C009A42064605D800233B6001F0A2FF164869
:10489C00F8BD2388142202FB0343083305F1100CE6
:1048AC002A4603CA624518605960154603F108038D
:1048BC00F6D1106818602388E188142202FB0343A8
:1048CC0008333B6023885A1C92FBF1F301FB132342
:1048DC009BB22380A38801339BB23046A38001F0A6
:1048EC0078FF0020D4E700BF0A7000F073B50446CF
:1048FC000D46C07DE67E002934D0012304223146CA
:10490C0002F0F6FB01230222217F207E02F0F0FB55
:10491C0094F83130022B16D100230122617F607E86
:10492C0002F0E6FB00230422A07EA17F02F0E0FB54
:10493C000123627F607E01930093114602F08CFB91
:10494C00002002B070BD032BFAD100230122617F3D
:10495C00607E02F0CDFB00230422A17FA07E02F03A
:10496C00C7FBEDE70B460A46314602F0C1FB2B466E
:10497C002A46217F207E02F0BBFB94F83130022BBB
:10498C0010D12B462A46617F607E02F0B1FB2B468C
:10499C002A46A07EA17F02F0ABFB627F607E019570
:1049AC000123C9E7032BCBD12B462A46617F607EBE
:1049BC0002F09EFB2B462A46CFE790F8323013B913
:1049CC00036818697047012B1CD103689B6803F0BE
:1049DC000200DA0748BF40F00100590748BF40F019
:1049EC0008001A0748BF40F02000D90648BF40F025
:1049FC0040009A0648BF40F080005B0603D540F4A7
:104A0C0000507047002070472DE9F3410D460446D5
:104A1C00002879D001F0D7FE012D06463BD1A36AC0
:104A2C009B889BB2002B3DD06068FFF7C7F8002332
:104A3C00A06A84F82D3083889BB273B101A9FFF76B
:104A4C00C5FD01996068364F0831FFF7FFF8019BEF
:104A5C001F61A06A83889BB253BB2046FFF7ADFF52
:104A6C008304FAD5023D012D10D8A068FFF7A6F8F3
:104A7C000023606A84F82C3083889BB23BBB94F88B
:104A8C003130032B02D02046FFF7C4FE304601F034
:104A9C00A0FE002009E0022D38D1636A9B889BB2EE
:104AAC00002BDFD101F095FE1E4802B0BDE8F0816D
:104ABC0001A9FFF7A5FD019BD3F80C80B8F1000FFD
:104ACC00C7D09B68002239462046C047C1E76946DB
:104ADC00FFF77CFD0099A068114F0831FFF7B6F87D
:104AEC00009B1F61606A83889BB2002BC7D069460C
:104AFC00FFF786FD009BDD68002DF3D09B6800223C
:104B0C0039462046A847EDE70748CEE7032DA9D143
:104B1C00A36A9B889BB2002B86D1636A80E700BF97
:104B2C00097000F0087000F0027000F0436A988879
:104B3C00C0B270472DE9F3410546406A8488984617
:104B4C00A4B200230E461746CDE900333CB16946AA
:104B5C00FFF73CFD01A90446A868FFF777F8009918
:104B6C0071B16CB94868019BC01A3860C8F8003044
:104B7C000B6833602846FFF720FF02B0BDE8F081D8
:104B8C000021C8F8001039603160F3E7836A988817
:104B9C00C0B270472DE9F3410546806A8488984677
:104BAC00A4B200230E461746CDE900333CB169464A
:104BBC00FFF70CFD01A904466868FFF747F8009958
:104BCC0071B16CB94868019BC01A3860C8F80030E4
:104BDC000B6833602846FFF7F0FE02B0BDE8F081A9
:104BEC000021C8F8001039603160F3E7007D704790
:104BFC002DE9F04104460E461746FFF7B3FC8046FC
:104C0C0050BB092001F0F6FD0546A26A93889BB2C1
:104C1C0013B194F82E3013B394F8322022BB2368CE
:104C2C001D6915F0020533D0012384F83030002AB9
:104C3C003FD13744BE42206836D103699E06FCD56D
:104C4C0055B994F83230002B42D123685A6F22F0B8
:104C5C0002025A670822DA604046BDE8F081002D56
:104C6C00D4D0FFF715F8D0E7012A1BD123689D6833
:104C7C0015F00205D8D1596C8807FCD40421596071
:104C8C0099688907FCD5596D41F002015965CBE74C
:104C9C000421D96019698907FCD5596F41F00201CB
:104CAC005967C1E70025BFE716F8011B02F049FF61
:104CBC00C0E7012AD0D13744B742206803D18368BA
:104CCC001907FCD5BCE716F8011B02F0DCFCF3E776
:104CDC00012BC1D123685A6C9207FCD45A6D22F077
:104CEC0002025A6508225A60B6E7000010B5044665
:104CFC00B0B190F82E3033B990F83130022B0AD085
:104D0C006068FEF71BFF94F82E300133DBB284F899
:104D1C002E30002010BDFFF713FD0028F3D1EFE774
:104D2C000048F7E7027000F010B50446D0B190F8D7
:104D3C002E30CBB190F82E30012B06D190F83130BB
:104D4C00022B0AD06068FEF719FF94F82E30013B55
:104D5C00DBB284F82E30002010BDFFF7F1FC0028E8
:104D6C00F3D1EFE70148F7E70148F5E7027000F0EF
:104D7C00057000F037B590F83150022D044618D16B
:104D8C00A37F407D01229A40A37E30215943134BCF
:104D9C000B4410B903F1806303E0012805D103F142
:104DAC00C0631A60002003B030BD217D0029F6D10C
:104DBC00F0E7012DF6D1037D73B911238DF807307F
:104DCC00FFF794FF2A460DF107012046FFF710FF6D
:104DDC002046FFF7A9FFE5E71323EFE70CA00040FF
:104DEC0090F83130032B05D00229417518BF01759D
:104DFC00FFF7C0BF00487047057000F010B50446BF
:104E0C0000283AD00321FFF7FFFD00212046FFF7D1
:104E1C00E7FF00212046FFF769FD94F8323003BB11
:104E2C0023680A22DA600021206A01F015F894F850
:104E3C003130032B03D00021607FFEF785FF6068C3
:104E4C00FEF7ECFDA068FEF7E9FDFEF7C7FD636A0F
:104E5C000020188058809880A36A18805880988009
:104E6C0010BD012BDFD1206802F0F9FB23685A6CCE
:104E7C009207FCD40A225A60D5E70148F0E700BF3C
:104E8C00027000F0F0B587B004461646FFF76AFBD7
:104E9C000546F0B9CDE9011604936A460E4B606ADB
:104EAC00039601A90593FFF7E3FC054688B994F82E
:104EBC002C3073B92046FFF78FFC00992046FFF782
:104ECC00C5FB94F83130032B03D025752046FFF732
:104EDC0051FF284607B0F0BD017000F073B5506A61
:104EEC0001A91446FFF772FB334B98422FD094F86C
:104EFC003200019B002836D12268116C11F400712C
:104F0C0028D02E49196198604FF40073936401F016
:104F1C005AFC0199CD68064635B14A688B68204623
:104F2C00D31A0A680969A84701A9606AFFF768FBE8
:104F3C00606A8588ADB2002D2FD001A9FFF746FB22
:104F4C0001992046FFF782FB304601F042FC01201C
:104F5C0002B070BD106CC5051BD51948186199605D
:104F6C004FF48073D2E7012813D12268D16A11F073
:104F7C00800106D011491961002199608023536387
:104F8C00C5E7D06A400604D50D48186199604023E6
:104F9C00F5E700221A619A60B9E7012323752046D0
:104FAC00FFF7E8FE94F8313084F82C50032BCBD06B
:104FBC002046FFF72FFCC7E70B7000F00D7000F0D8
:104FCC000C7000F02DE9F041094F04460D460FCF4F
:104FDC0088B001AE0FC697E8070086E80700002CE2
:104FEC0000F0C48445B9034E304608B0BDE8F081EA
:104FFC00C4640300037000F03422002120462FF01B
:10500C0053F82046FFF7C0FA06460028ECD12B7C5B
:10501C0084F83130CD4A2B682360934284F83200F7
:10502C0040F07F81CA4B2362CA4BE3604FF44023AC
:10503C002361D5E90623002662621680568096808D
:10504C0084F82C60A3621E805E809E806B68039344
:10505C006B89ADF81430AB89ADF81230AB7B8DF8A1
:10506C0010300121EB7BBC4884F82D6084F82F6054
:10507C0005278DF816308DF8117000F0EDFE01212A
:10508C00B64800F0E9FE0121206A00F0E5FE01A916
:10509C0028688DF8046002F0D5FCD5F800C06A7A57
:1050AC00DCF878002B7A20F4F85020F01F00104325
:1050BC0040EA03200321CCF87800CCF87410206867
:1050CC00DFF888C2604540F06281BB4240F27A81D1
:1050DC00981F042840F27881A3F10B00B84240F2EB
:1050EC007581A3F11100062808D9A3F1180106292E
:1050FC0040F26E811F2B14BFFF213946042AE17543
:10510C0040F26881511F042940F26681A2F10A0124
:10511C00052940F26381A2F11001062940F2608159
:10512C00A2F11701072940F25D811F2A14BFFF214C
:10513C0000212176002B58D0012B56D0022B54D0B5
:10514C00032B52D0042B50D0052B4ED0062B00F045
:10515C005381072B00F05281082B00F05181092B51
:10516C0000F050810A2B00F04F810B2B00F05A817C
:10517C000C2B00F039810D2B00F038810E2B00F038
:10518C0037810F2B00F03681102B00F03581112B5D
:10519C0000F02E81122B00F02D81132B00F02C81AE
:1051AC00142B00F02B81152B00F02A81162B00F00C
:1051BC002981172B00F02881182B00F02781192B3F
:1051CC0000F026811A2B00F025811B2B00F0248186
:1051DC001C2B00F023811D2B00F022811E2B00F0D4
:1051EC0021811F2B0CBF0723FF23E376002A00F03D
:1051FC00A983012A00F0A883022A00F09183032AD4
:10520C0000F09083042A00F08F83052A00F08E832F
:10521C00062A00F08D83072A00F08C83082A00F000
:10522C008B83092A00F08A830A2A00F06F830B2AE9
:10523C0000F06E830C2A00F06D830D2A00F06C8355
:10524C000E2A00F06B830F2A00F07083102A00F0F6
:10525C006383112A00F06283122A00F06783132AF9
:10526C0000F06683142A00F06583152A00F064832D
:10527C00162A00F06383172A00F06283182A00F0C4
:10528C006183192A00F060831A2A00F049831B2AD3
:10529C0000F048831C2A00F047831D2A00F0368357
:1052AC001E2A00F035831F2A14BFFF230023237707
:1052BC006B7C6376AB7C6377EB7CA3762B7DA377DF
:1052CC0001212046FFF712FB064600287FF48CAE26
:1052DC0001F079FA2F7C032F804640F037832B683E
:1052EC002A8CDA675A6E42F004025A665A6F42F000
:1052FC0030025A6728684FF0FF3383642B7C032BF2
:10530C000CBF0521042102F063FB2B684FF44062B3
:10531C00DA602046FFF796FA0646404601F059FA45
:10532C0062E60F4A934206D10E4B23620E4BE360AA
:10533C004FF450237CE60D4A93421DD10C4B236253
:10534C000C4BE3604FF4602372E600BF0000014099
:10535C000042040001000C004041050000350A0029
:10536C00000401400052040001000D00000801403F
:10537C000062040001000E00C54A93427FF433AE74
:10538C00C44B2362C44BE3604FF4702350E6DFF848
:10539C000CC3604548D1052B14D9981F042813D988
:1053AC00A3F10B00052811D9A3F1110006287FF6F3
:1053BC00A5AEA3F1180106290AD91F2B14BFFF2192
:1053CC0005219BE6314699E6012197E6022195E6F7
:1053DC00394693E60021ACE60121AAE60221A8E6B3
:1053EC000321A6E60521A4E60723FEE60823FCE636
:1053FC000923FAE60A23F8E60B23F6E60C23F4E677
:10540C000D23F2E60E23F0E60F23EEE60023ECE686
:10541C000123EAE60223E8E60323E6E60423E4E6B6
:10542C000523E2E60623E0E6DFF874C2604540F0AF
:10543C003981042B40F2F880591F032940F2F68081
:10544C00A3F10901042940F2F380A3F10E010E2906
:10545C0040F2F080A3F11D01012940F2ED801F2BD9
:10546C0014BFFF210A21032AE17540F2E780111FC6
:10547C00032940F2E580A2F10801042940F2E28000
:10548C00A2F10D010E2940F2DF80A2F11C010229CC
:10549C0040F2DC801F2A14BFFF2100212176002B53
:1054AC0000F0DC80012B00F0DB80022B00F0DA80B6
:1054BC00032B00F0D980042B00F0D880052B00F0D2
:1054CC00E380062B00F0E280072B00F0C180082B54
:1054DC0000F0C080092B00F0C3800A2B00F0C280C2
:1054EC000B2B00F0C1800C2B00F0C0800D2B00F0BA
:1054FC00BF800E2B00F0C8800F2B00F0C780102B44
:10550C0000F0A880112B00F0A780122B00F0A680D1
:10551C00132B00F0A580142B00F0A480152B00F0A9
:10552C00A380162B00F0A280172B00F0A180182B63
:10553C0000F0A080192B00F09F801A2B00F09E80A9
:10554C001B2B00F09D801C2B00F09C801D2B00F071
:10555C009B801E2B00F09A801F2B0CBF0223FF2375
:10556C00E376002A00F0D281012A00F0D181022AD0
:10557C0000F0D081032A00F0CF81042A00F0E081F2
:10558C00052A00F0DF81062A00F0DE81072A00F0F0
:10559C00C781082A00F0BA81092A00F0B9810A2AC9
:1055AC0000F0B8810B2A00F0B7810C2A00F0B6810C
:1055BC000D2A00F0C5810E2A00F0C4810F2A00F0DC
:1055CC00AF81102A00F0AE81112A00F0AD81122AB1
:1055DC0000F09C81132A00F09B81142A00F09A8120
:1055EC00152A00F09981162A00F09881172A00F0EC
:1055FC009D81182A00F09C81192A00F09B811A2A9F
:10560C0000F09A811B2A00F099811C2A00F09881E5
:10561C001D2A00F097811E2A00F096811F2A08BFD0
:10562C00052318BFFF2342E631461CE708211AE781
:10563C00012118E7394616E70A2114E700212DE766
:10564C0008212BE7012129E7052127E70A2125E776
:10565C00022385E7032383E7042381E705237FE700
:10566C0006237DE707237BE7082379E7092377E700
:10567C000A2375E70B2373E70C2371E70D236FE700
:10568C000E236DE70F236BE7002369E7012367E720
:10569C00000C01400072040001000F0000040140E6
:1056AC0000080140B34EB0427FF49DAC072B21D9CA
:1056BC00A3F10801012940F2EF80A3F10A010529A9
:1056CC0040F2EC80A3F11001012940F2E980A3F132
:1056DC001201052940F2E680A3F11801042940F2D9
:1056EC00E380A3F11D01012940F2E0801F2B14BFC0
:1056FC00FF210A21062AE17540F2DA80D11F012927
:10570C0040F2D880A2F10901052940F2D580A2F11E
:10571C000F01012940F2D280A2F11101052940F2BA
:10572C00CF80A2F11701042940F2CC80A2F11C0118
:10573C00022940F2C9801F2A14BFFF2103212176C0
:10574C00002B00F0C780012B00F0C680022B00F06C
:10575C00C580032B00F0CC80042B00F0CB80052BF4
:10576C0000F0CA80062B00F0C980072B00F0C8801F
:10577C00082B00F0B580092B00F0B4800A2B00F048
:10578C00A5800B2B00F0A4800C2B00F0A3800D2B1C
:10579C0000F0A2800E2B00F0A1800F2B00F0A8804F
:1057AC00102B00F0AB80112B00F0AA80122B00F014
:1057BC00A980132B00F0A880142B00F09180152BDE
:1057CC0000F09080162B00F08F80172B00F08E804D
:1057DC00182B00F08D80192B00F08C801A2B00F008
:1057EC008B801B2B00F08A801C2B00F089801D2BDA
:1057FC0000F088801E2B00F087801F2B0CBF02232B
:10580C00FF23E376002A00F08780012A00F08680CF
:10581C00022A00F08B80032A00F08A80042A00F010
:10582C008980052A00F08880062A00F08780072AE4
:10583C0000F08A80082A73D0092A67D00A2A67D018
:10584C000B2A67D00C2A67D00D2A67D00E2A6DD090
:10585C000F2A71D0102A71D0112A71D0122A71D04E
:10586C00132A71D0142A5BD0152A5BD0162A5BD070
:10587C00172A5BD0182A5BD0192A5BD01A2A5BD066
:10588C001B2A5BD01C2A5BD01D2A5BD01E2A5BD046
:10589C001F2A08BF0823C4E608212BE7012129E7AA
:1058AC00092127E7022125E7052123E70A2121E722
:1058BC00032144E7082142E7012140E709213EE7A3
:1058CC0002213CE705213AE70A2138E7062398E74D
:1058DC00072396E7082394E7092392E70A2390E726
:1058EC0002238EE703238CE704238AE7052388E74A
:1058FC000B2386E70C2384E70D2382E70E2380E736
:10590C000F237EE700237CE701237AE70623CEE40E
:10591C000723CCE40823CAE40923C8E40A23C6E419
:10592C000323C4E40423C2E40523C0E40B23BEE434
:10593C000C23BCE40D23BAE40E23B8E40F23B6E425
:10594C000023B4E40123B2E40223B0E4022F7FF479
:10595C00D1ACFEF7EBF9607F0749FEF7F5F9A675B8
:10596C00267567752046FFF705FAC3E4034EFFF76B
:10597C003BBB00BF000C014069470000027000F007
:10598C0090F83120012A10B5034610D102290ED00F
:10599C00827D8A4201D1002010BD997511B9FFF7A3
:1059AC00C3F9F8E70129F6D1FFF7A0F9F3E70148AD
:1059BC00F2E700BF057000F0F0B587B0044616465C
:1059CC00FEF7D0FD054600BBCDE9011604936A46EF
:1059DC000F4BA06A039601A90593FEF749FF0546F4
:1059EC0098B994F82D3083B900F0EDFEA36A9B882A
:1059FC009BB2064633B100992046FEF749FE0123BF
:105A0C0084F83030304600F0E4FE284607B0F0BD94
:105A1C00017000F070B588B00D220021294C2A4E7F
:105A2C0004A82EF041FB00250223012127488DF804
:105A3C001010CDE9015503958DF80A3000F00CFAE1
:105A4C00294601AA204601F048FF4FF6FF73E36197
:105A5C008DF81250354604A9204601F0EBFE1C4887
:105A6C0000F03AFB9DF81230D8400133DBB20A2B20
:105A7C0030608DF8123002D8164B9842EBD816488D
:105A8C00164C00F029FB1649B1FBF0F12868154AB9
:105A9C000025E1FB00450023204629462EF0C8F8DE
:105AAC00114B084A1860114B00201870936923F0B1
:105ABC00100393610E4B4FF40062C3F880211A60FF
:105ACC0008B070BD00800140B850002000020400F6
:105ADC004041050080841E007000020020A10700D8
:105AEC0000B0710B40420F00BC500020C050002091
:105AFC0000E100E01E4BF7B519681E4C1E4A1F4E04
:105B0C000025E0FB01452046294600232EF090F8A5
:105B1C00DFF86CC04FF6E85400254FF6E75E4FF007
:105B2C00FF378D4208BF844211D380B260B1144A52
:105B3C00516A89B2536A9BB2ADF80630BDF8063093
:105B4C005B1A9BB29842F5D8002003B0F0BDDCF88C
:105B5C00242092B2DCF824309BB2ADF80430BDF8AE
:105B6C0004309B1A9BB27345F4D980197941D8E75C
:105B7C00B850002020A1070040420F001802FFFF80
:105B8C0000800140044BDA68D20604D510225A6119
:105B9C00024B01221A70704700800140C050002057
:105BAC002D4B002A70B52D4D446B08BF1D462C4B58
:105BBC0014BF1026002698423AD102293FD004D8AF
:105BCC00B9B1012921D000232DE0062931D081293A
:105BDC0035D00329F7D1234B1A6819681B68120CAE
:105BEC001B0C03F0F00302F4FE421A43C1F303430F
:105BFC0018E01D490B680A6803F4FE4302F00F021B
:105C0C001A430B6803F0F0030CE0174A1368116891
:105C1C0012681B0C120C02F0F00203F4FE43134347
